{
  "contractName": "Coursetro",
  "abi": [
    {
      "anonymous": false,
      "inputs": [
        {
          "indexed": false,
          "name": "name",
          "type": "bytes15"
        },
        {
          "indexed": false,
          "name": "age",
          "type": "uint256"
        }
      ],
      "name": "Instructor",
      "type": "event"
    },
    {
      "constant": false,
      "inputs": [
        {
          "name": "_fName",
          "type": "bytes15"
        },
        {
          "name": "_age",
          "type": "uint256"
        }
      ],
      "name": "setInstructor",
      "outputs": [],
      "payable": false,
      "stateMutability": "nonpayable",
      "type": "function"
    },
    {
      "constant": true,
      "inputs": [],
      "name": "getInstructor",
      "outputs": [
        {
          "name": "",
          "type": "bytes15"
        },
        {
          "name": "",
          "type": "uint256"
        }
      ],
      "payable": false,
      "stateMutability": "view",
      "type": "function"
    }
  ],
  "bytecode": "0x608060405234801561001057600080fd5b506101fc806100206000396000f30060806040526004361061004c576000357c0100000000000000000000000000000000000000000000000000000000900463ffffffff1680633c1b81a514610051578063513286e7146100ab575b600080fd5b34801561005d57600080fd5b506100666100f6565b604051808370ffffffffffffffffffffffffffffffffff191670ffffffffffffffffffffffffffffffffff191681526020018281526020019250505060405180910390f35b3480156100b757600080fd5b506100f4600480360381019080803570ffffffffffffffffffffffffffffffffff1916906020019092919080359060200190929190505050610124565b005b6000806000809054906101000a90047101000000000000000000000000000000000002600154915091509091565b816000806101000a8154816effffffffffffffffffffffffffffff02191690837101000000000000000000000000000000000090040217905550806001819055507fb0b8b42caf73abbfe18952d2f4b5848f428754a54d55c25eff1188a38de4429f8282604051808370ffffffffffffffffffffffffffffffffff191670ffffffffffffffffffffffffffffffffff191681526020018281526020019250505060405180910390a150505600a165627a7a72305820d6dd3e8b5012d093fa0d927bf45892ef2319ee30c1bb7593a0a00829a7b65b370029",
  "source": "pragma solidity ^0.4.24;\n\ncontract Coursetro {\n\n    bytes15 fName;\n    uint age;\n\n    event Instructor(\n        bytes15 name,\n        uint age\n    );\n\n    function setInstructor(bytes15 _fName, uint _age) public {\n        fName = _fName;\n        age = _age;\n        emit Instructor(_fName, _age);\n    }\n\n    function getInstructor() public constant returns (bytes15, uint) {\n        return (fName, age);\n    }\n\n}\n",
  "sourcePath": "F:\\Projects\\crypto.iran\\contracts\\Coursetro.sol",
  "compiler": {
    "name": "solc",
    "version": "0.4.24+commit.e67f0147.Emscripten.clang"
  },
  "schemaVersion": "2.0.1",
  "updatedAt": "2018-10-05T07:04:00.196Z"
}